:020000040000fa
:080000000002040000000000f2
:020000040000fa
:0400080018040000d8
:020000040000fa
:04000c0018040000d4
:020000040000fa
:0400100018040000d0
:020000040000fa
:0400140018040000cc
:020000040000fa
:0400180018040000c8
:020000040000fa
:04001c0018040000c4
:020000040000fa
:0400200018040000c0
:020000040000fa
:0400240018040000bc
:020000040000fa
:0400280018040000b8
:020000040000fa
:04002c0018040000b4
:020000040000fa
:0400300018040000b0
:020000040000fa
:04003400680300005d
:020000040000fa
:0400380018040000a8
:020000040000fa
:04003c0018040000a4
:020000040000fa
:0400400018040000a0
:020000040000fa
:04004400180400009c
:020000040000fa
:040048001804000098
:020000040000fa
:04004c001804000094
:020000040000fa
:040050001804000090
:020000040000fa
:04005400180400008c
:020000040000fa
:040058001804000088
:020000040000fa
:04005c001804000084
:020000040000fa
:040060001804000080
:020000040000fa
:04006400180400007c
:020000040000fa
:040068001804000078
:020000040000fa
:04006c001804000074
:020000040000fa
:040070001804000070
:020000040000fa
:04007400180400006c
:020000040000fa
:040078001804000068
:020000040000fa
:04007c001804000064
:020000040000fa
:040080001804000060
:020000040000fa
:04008400180400005c
:020000040000fa
:040088001804000058
:020000040000fa
:04008c001804000054
:020000040000fa
:040090001804000050
:020000040000fa
:04009400180400004c
:020000040000fa
:040098001804000048
:020000040000fa
:04009c001804000044
:020000040000fa
:0400a0001804000040
:020000040000fa
:0400a400180400003c
:020000040000fa
:0400a8001804000038
:020000040000fa
:0400ac001804000034
:020000040000fa
:0400b0001804000030
:020000040000fa
:0400b400180400002c
:020000040000fa
:0400b8001804000028
:020000040000fa
:0400bc001804000024
:020000040000fa
:0400c0001804000020
:020000040000fa
:0400c400180400001c
:020000040000fa
:0400c8001804000018
:020000040000fa
:0400cc001804000014
:020000040000fa
:0400d0001804000010
:020000040000fa
:0400d400180400000c
:020000040000fa
:0400d8001804000008
:020000040000fa
:0400dc001804000004
:020000040000fa
:0400e0001804000000
:020000040000fa
:0400e40018040000fc
:020000040000fa
:0400e80018040000f8
:020000040000fa
:0400ec0018040000f4
:020000040000fa
:0400f00018040000f0
:020000040000fa
:0400f40018040000ec
:020000040000fa
:0400f80018040000e8
:020000040000fa
:0400fc0018040000e4
:020000040000fa
:0401000018040000df
:020000040000fa
:0401040018040000db
:020000040000fa
:0401080018040000d7
:020000040000fa
:04010c0018040000d3
:020000040000fa
:0401100018040000cf
:020000040000fa
:0401140018040000cb
:020000040000fa
:0401180018040000c7
:020000040000fa
:04011c0018040000c3
:020000040000fa
:0401200018040000bf
:020000040000fa
:0401240018040000bb
:020000040000fa
:0401280018040000b7
:020000040000fa
:04012c0018040000b3
:020000040000fa
:0401300018040000af
:020000040000fa
:0401340018040000ab
:020000040000fa
:0401380018040000a7
:020000040000fa
:04013c0018040000a3
:020000040000fa
:04014000180400009f
:020000040000fa
:04014400180400009b
:020000040000fa
:040148001804000097
:020000040000fa
:04014c001804000093
:020000040000fa
:04015000180400008f
:020000040000fa
:04015400180400008b
:020000040000fa
:040158001804000087
:020000040000fa
:04015c001804000083
:020000040000fa
:04016000180400007f
:020000040000fa
:04016400180400007b
:020000040000fa
:040168001804000077
:020000040000fa
:04016c001804000073
:020000040000fa
:04017000180400006f
:020000040000fa
:04017400180400006b
:020000040000fa
:040178001804000067
:020000040000fa
:04017c001804000063
:020000040000fa
:04018000180400005f
:020000040000fa
:04018400180400005b
:020000040000fa
:040188001804000057
:020000040000fa
:04018c001804000053
:020000040000fa
:04019000180400004f
:020000040000fa
:04019400180400004b
:020000040000fa
:040198001804000047
:020000040000fa
:04019c001804000043
:020000040000fa
:0401a000180400003f
:020000040000fa
:0401a400180400003b
:020000040000fa
:0401a8001804000037
:020000040000fa
:0401ac001804000033
:020000040000fa
:0401b000180400002f
:020000040000fa
:0401b400180400002b
:020000040000fa
:0401b8003003000010
:020000040000fa
:0402080018040000d6
:020000040000fa
:04020c0018040000d2
:020000040000fa
:0402100018040000ce
:020000040000fa
:0402140018040000ca
:020000040000fa
:0402180018040000c6
:020000040000fa
:04021c0018040000c2
:020000040000fa
:0402200018040000be
:020000040000fa
:0402240018040000ba
:020000040000fa
:0402280018040000b6
:020000040000fa
:04022c0018040000b2
:020000040000fa
:0402300018040000ae
:020000040000fa
:0402340018040000aa
:020000040000fa
:0402380018040000a6
:020000040000fa
:04023c0018040000a2
:020000040000fa
:04024000180400009e
:020000040000fa
:04024400180400009a
:020000040000fa
:040248001804000096
:020000040000fa
:04024c001804000092
:020000040000fa
:04025000180400008e
:020000040000fa
:04025400180400008a
:020000040000fa
:040258001804000086
:020000040000fa
:04025c001804000082
:020000040000fa
:04026000180400007e
:020000040000fa
:04026400180400007a
:020000040000fa
:040268001804000076
:020000040000fa
:04026c001804000072
:020000040000fa
:04027000180400006e
:020000040000fa
:04027400180400006a
:020000040000fa
:040278001804000066
:020000040000fa
:04027c001804000062
:020000040000fa
:04028000180400005e
:020000040000fa
:04028400180400005a
:020000040000fa
:040288001804000056
:020000040000fa
:04028c001804000052
:020000040000fa
:04029000180400004e
:020000040000fa
:04029400180400004a
:020000040000fa
:040298001804000046
:020000040000fa
:04029c001804000042
:020000040000fa
:0402a000180400003e
:020000040000fa
:0402a400180400003a
:020000040000fa
:0402a8001804000036
:020000040000fa
:0402ac001804000032
:020000040000fa
:0402b000180400002e
:020000040000fa
:0402b400180400002a
:020000040000fa
:0402b8001804000026
:020000040000fa
:0402bc001804000022
:020000040000fa
:0402c000180400001e
:020000040000fa
:0402c400180400001a
:020000040000fa
:0402c8001804000016
:020000040000fa
:0402cc001804000012
:020000040000fa
:0402d000180400000e
:020000040000fa
:0402d400180400000a
:020000040000fa
:0402d8001804000006
:020000040000fa
:0402dc001804000002
:020000040000fa
:0402e00018040000fe
:020000040000fa
:0402e40018040000fa
:020000040000fa
:0402e80018040000f6
:020000040000fa
:0402ec0018040000f2
:020000040000fa
:0402f00018040000ee
:020000040000fa
:0402f40018040000ea
:020000040000fa
:0402f80018040000e6
:020000040000fa
:0402fc0018040000e2
:020000040000fa
:0403000018040000dd
:020000040000fa
:0403040018040000d9
:020000040000fa
:0403080018040000d5
:020000040000fa
:04030c0018040000d1
:020000040000fa
:0403100018040000cd
:020000040000fa
:0403140018040000c9
:020000040000fa
:0403180018040000c5
:020000040000fa
:04031c0018040000c1
:020000040000fa
:0403200018040000bd
:020000040000fa
:0403240018040000b9
:020000040000fa
:0403280018040000b5
:020000040000fa
:04032c0018040000b1
:020000040000fa
:0403300018040000ad
:020000040000fa
:0403340018040000a9
:020000040000fa
:0403380018040000a5
:020000040000fa
:04033c0018040000a1
:020000040000fa
:04034000180400009d
:020000040000fa
:040344001804000099
:020000040000fa
:040348001804000095
:020000040000fa
:04034c001804000091
:020000040000fa
:04035000180400008d
:020000040000fa
:040354001804000089
:020000040000fa
:040358001804000085
:020000040000fa
:04035c001804000081
:020000040000fa
:04036000180400007d
:020000040000fa
:040364001804000079
:020000040000fa
:040368001804000075
:020000040000fa
:04036c001804000071
:020000040000fa
:04037000180400006d
:020000040000fa
:040374001804000069
:020000040000fa
:040378001804000065
:020000040000fa
:04037c001804000061
:020000040000fa
:04038000180400005d
:020000040000fa
:040384001804000059
:020000040000fa
:040388001804000055
:020000040000fa
:04038c001804000051
:020000040000fa
:04039000180400004d
:020000040000fa
:040394001804000049
:020000040000fa
:040398001804000045
:020000040000fa
:04039c001804000041
:020000040000fa
:0403a000180400003d
:020000040000fa
:0403a4001804000039
:020000040000fa
:0403a8001804000035
:020000040000fa
:0403ac001804000031
:020000040000fa
:0403b000180400002d
:020000040000fa
:0403b4001804000029
:020000040000fa
:0403b8001804000025
:020000040000fa
:100400006f532100cea822000e01880000000000da
:10041000000020000000e000020032000001200087
:100420002002880014000700030107000000e0001c
:1004300003003a0000ae2000010020000200370057
:100440000000200001002000810f70000100320038
:1004500014000700000020000000e000020032004d
:100460000000020000000000303b0200000000001d
:100470000040da000000fe004440a9008012200085
:100480000000e000030032000020200090018800fe
:100490004440a800000006008a1f78008b1f7800e7
:1004a00000000600a1028800800478000000eb0034
:1004b0001f003700e284440054a0b4009905ba003c
:1004c000e284440054a0b4009906ba00e2844400d7
:1004d00054a0b4000006eb00476fde00fd07b20039
:1004e000ae018800636ce10003003a00eaff0700f8
:1004f0000000eb000e003700606ce10008003a00dd
:10050000004deb000a05e800020039003420ec0041
:100510000af0a0008b05e900f9ff3e000400370057
:100520006168e100010032000086eb000b0007006b
:1005300019c7ba001905ba000e04e00003003a001a
:100540000a00e000dbff3a0000000600fe07b200f0
:10055000ae0288008a047800f5ff37000cd0a300b3
:10056000e20f4d001c00390089027800354dba00b9
:100570000a05e800020039003420ec000af0a0006f
:100580008b05e9000f003200254dba000a05e8008e
:10059000020039003420ec000af0a0008b05e900cd
:1005a000080032000c00e0000600320015cdba0051
:1005b0000a05e800020039003420ec000af0a0002f
:1005c0008b05e9008984e80054a0b4000b00e0002a
:1005d000e2ff3a00000006009902ba00055d7800cb
:1005e0008b05e900f7ff3200c82ade00055d7800c0
:1005f0008b05e900f3ff32000c00e000f1ff320050
:1006000019ddba00eeff3700142c040000000000d2
:100610001a340400000000001a2f0400000000003b
:1006200076360400000000000a32040000000000da
:100630008a300400000000000235040000000000c1
:10064000902f040000000000a43804000000000007
:100650000630040000000000163304000000000013
:100660003600f800809fbe00829fbe00849fbe00bf
:10067000869fbe000a87ab000600320050a98000aa
:10068000000001000000eb00a04088000a87a900dc
:10069000080037000a67ab000600320040a980005e
:1006a00000000100a04080000000e800a040880099
:1006b0000a67a9009080a9004f03be004f02be0048
:1006c0004f01be004f00be003600f900004006009a
:1006d0003600f800809fbe00829fbe00849fbe004f
:1006e000869fbe003200f8003400f80010002000a1
:1006f000a0018800002020009001880060482100af
:100700001000fb004800dd00501688000048210062
:1007100010407800e24f50002100320003003e00fc
:10072000e14f500031003a0005003700e34f500020
:1007300026003200e14f40002c003a00260037002e
:1007400010a4800021a480004a0add004601de00da
:1007500002017200c689de00430bdd004d02de009f
:1007600004027300040260000243720025002000ae
:100770000533dd00c90bdd004702de000482730093
:10078000c78ade000201720083817200004171009d
:100790006a11b90061482100824843001500370002
:1007a00010a4800021a48000460add004a01de007a
:1007b00002017200a242b2000080fb000281b90077
:1007c00061482100824878000a0037006048210013
:1007d0000048eb00070037001e090200000000007f
:1007e00061482100804878000200370060482100fd
:1007f0000048eb0010a4800021a4800061004000ac
:10080000e080480010a4880021a488008460a9002a
:100810003400f9003200f9004f03be004f02be0061
:100820004f01be004f00be003600f9000040060038
:100830000040da000000fe000000050003f0a20006
:10084000889fbe008a9fbe008c1f7800170107009a
:100850001e0133006450e1004f0032006420e100cb
:100860005200320003826c0007003b000905d000f3
:100870000306d000820f54000c065d000200390010
:100880000200320089017800030678008582550055
:1008900004003d000003fd008103fd008502ea0025
:1008a0008b854200840f720002003b006000100044
:1008b000e08018006011b8000005eb007a28e10024
:1008c0000a00390006007800c75ddd00f707b200b6
:1008d000878075002d003700828171000a01780041
:1008e000610560008180d1000080d3008502e900ad
:1008f000f9ff3b00060440008784480002003b00eb
:1009000060041400e0841c000988a3000700320082
:100910008a81710082817100610164008904d100c3
:100920000884d3008b05e800170037000978a3007e
:1009300013003a000b00e000130034008b05e900bf
:100940000804440089844c000a4474000978a30018
:100950000d003a000b00e000070034008b05e900b1
:100960000804440089844c0001003a000b00200078
:100970000978a300f7ff32000001eb000200370006
:10098000828171000a0178008d0007000cf0a70039
:1009900001f0a000d60037006420e10002003a0018
:1009a000838f6c00d60033000801be000200be0039
:1009b000cf003700889fbe008a9fbe008c1f780042
:1009c000ba000700c100330003866c006450e100e8
:1009d0002e0032006420e100330032006150e1005b
:1009e0002f0032006120e100310032008585550082
:1009f000eb07b000090020000804200005003700c4
:100a00000804440089844c000a00310006034300b6
:100a100087834b000001530081815b00f8ff3300a6
:100a20000203be000800a0000804440089844c00b2
:100a3000f6ff3900c639dd00830173000100320082
:100a4000130020008904d1000884d3000998a30072
:100a5000050032000800a7000300a0008904d100af
:100a60000884d3008b05e8008904d1000884d300f2
:100a70000001eb000281d2005100070001f0a1004b
:100a80000cf0a70001f0a000990037006420e100fd
:100a90009b0032000801be000200be00f7ff3700d5
:100aa0006120e100960032006000b800f3ff3700db
:100ab0000000200001f82700f0ff37000001be0011
:100ac000650007000470a70003f0a1006509b100ec
:100ad000160032000d0035006828e10006003500e0
:100ae000f0ff2f00f1ff27000300e00013003b00a0
:100af000010028000000050000004000818048003f
:100b00008502e900fcff3a0008003700f88f420038
:100b100002003c008000eb00000005008100d100d5
:100b20000080d3008502e800fcff3a000300e000eb
:100b300002003b0060001000e0801800000006008a
:100b40000001be00440007000470a70003f0a100ec
:100b500003f8a30013003a006509b1001000320049
:100b6000090035006928e100020035000100280075
:100b70000000050000004000818048008502e90077
:100b8000fcff3a0000000600f88f42000500350027
:100b90008100d1000080d3008502e800fcff3a000c
:100ba000000006008000eb00000005004f89de0019
:100bb000820178008b0037006011b800990037007f
:100bc00081002000618055000b003d000b002000db
:100bd00061fe2f000100e1001d00340082817100e0
:100be000610164008904d1000884d3000000e8009a
:100bf000faff3a00710020006100640003007000f9
:100c0000020060000900320061044400e0844c00ee
:100c10000988a500050032008b05e8006808e1009e
:100c200002003a008904d1000884d300f20f2000aa
:100c30000258e10005003d00c75ddd00f907b20084
:100c40008980750008007800000006000bf8270076
:100c50008b00780000000500c70ade00f107b20033
:100c6000f50fb20008003200e1cf4200020032006e
:100c70000170a00024000500810f70000100320007
:100c80000408050044000500810f700002003a00ce
:100c9000140005008502e9000000400081c0480002
:100ca000fcff3b000170a000240005000004be0012
:100cb000e9ff07000003be000405be000200be00fd
:100cc000e5ff0700844f7500000006000200be002b
:100cd0006450e100050036006420e10002003600a7
:100ce0000968a30001003a000800be000160a000ee
:100cf0004f0678004f05be004f04be0000000600fe
:100d0000f0ff2f00f1ff2700f9ff3700889fbe009a
:100d10008a9fbe008c1f7800e4ff0700ebff3300c2
:100d200003866c006450e100240032006420e1007e
:100d3000270032006150e100220032006120e10012
:100d4000210032008b854200eb07b1000134b8006e
:100d5000003ab8000804420089844a00013ab80009
:100d60000030b8008880400009014a0004003300c8
:100d70000000400081804800020149008b05e90025
:100d8000c909dd008301700001003200130020005a
:100d9000c814de004814dd004709de001200b2006e
:100da000c808de000884700085ff070001f0a1007c
:100db0000cf0a70001f0a000cdff37006120e1009a
:100dc000cfff32000801be000200be00f7ff37006f
:100dd0006150e100fcff3a00c9ff37000001eb0061
:100de0003f003700881f7800030478000300e0000c
:100df00007003d0060001000e0801800600119004d
:100e0000e081190002003b0001f02d0003003700d3
:100e10000400070008f0a70001f0a0004f047800cc
:100e200000000600889fbe008a9fbe0000827000fe
:100e30000402710004827100260032000004be002a
:100e40000200be006011b8006b092000950220006e
:100e50000182cf000a0039000541b1000082cf00b5
:100e6000070039000541b1000982cf0004003900b4
:100e70000541b1000882cf00010039000541b100f1
:100e800005425200120032000a003b0082817100cc
:100e9000610164008100d1000080d3008984d30007
:100ea0000884d3008b05e8000442e800f7ff3a000d
:100eb000070037000804440089844c000000480003
:100ec000818048008b05e9000442e900f9ff3a00ff
:100ed0003bff07004f05be004f04be0000000600a8
:100ee000889fbe008a9fbe008c9fbe00820578004e
:100ef0000004be0058ff07000800be006420e100a7
:100f00000700390002003a00f1ff2700f0ff2f0030
:100f10000160a00012022000024088005500370046
:100f20006120e10003003a000b00a70001f8230054
:100f30005000370001f0a10002002100936424005a
:100f4000500007000800be0004003500b2fd20007c
:100f5000930c24004d0007000004be000005eb00c8
:100f60000b00a6004f0dde0001f0a1000004be0042
:100f700032982f0023ea230064ff07000001eb00f2
:100f800003f023000b00a70003f823002cfe07004a
:100f9000cafe07000000a7000a00a20003ff070026
:100fa0000b00e000030032000200200003f02300e9
:100fb00022fe070001f0a2000006be000200200091
:100fc0009304240051ff07000801be001cfe070027
:100fd000809fbe000c00be0022a22a00d3a72300df
:100fe0004aff07004f01be0015fe07000004be00c7
:100ff00001f0a10002002000039823002100070057
:101000000800be00190035000001be003fff0700c8
:101010000006be00b2c52900e36223003bff0700c3
:1010200022222b00f3942b0005fe07000c01be00ca
:1010300036ff0700e273280083c0230000fe07008c
:101040000c01be0031ff070042aa2a00a3e22b00d8
:10105000fbfd07000c01be002cff07000801be00cd
:101060002aff07000801be00f5fd07000a00a700df
:1010700001f0a2004f06be004f05be004f04be00a7
:10108000000006001400200051003700040020007a
:1010900000003700889fbe008a9fbe008c1f78002a
:1010a0004f26dd0001ff070008ff33006120e1004b
:1010b000430032006250e10041003e003e00390032
:1010c0006420e1003c003200058255000f003b0027
:1010d0000402e80038003a00800f5300818f5b0063
:1010e000350034000800be0003f0a10001f0a600a6
:1010f00003f0a0000cf0a700d1fd0700fcfe3700b4
:101100000603430087834b000c464600000553004e
:1011100081855b00020033000a03be000c00a000c2
:101120000402e900f6ff3b00850578000602430053
:1011300087824b0004003a006000b80009f0a70065
:1011400001f0a000eafe37000002520081825a003e
:101150000704e000040033000603430087834b00cc
:101160008b05e900faff3700090578000604be0088
:101170000203be006011b80091fe0700e00f5200ac
:10118000e08f5a000700350002003c000c08a30065
:10119000040032000601be0003f0a0000cf0a7001e
:1011a000a7fd07000a85680001f0a1000af0a7006a
:1011b00001f0a000cefe37000800be00ccfe3700d4
:1011c000100220000cf0a60000408800ccfe370082
:1011d000889fbe008a9fbe00841f7800b3fe070070
:1011e0004f00780011003300f0ff2f00838f6c0058
:1011f00006003b00040565000a00a7000800370050
:1012000009f0a6001000200008003700820f5400eb
:10121000838f5c00030039001000200001003e00b5
:101220000000200009f0a7000000ea004f05be0002
:101230004f04be000000e00000000600889fbe00d2
:1012400050a480000000e000010032000000010016
:1012500060a480000000e0000100320000000100f6
:10126000804821001004e00022003a0090a980008c
:10127000a1a9800088002000d260260093012000f0
:1012800035000700f2352f00e3c6230000004100bf
:10129000818049000804e900f7ff3a00e84821008e
:1012a0000908200088844400d260260093012000b1
:1012b00029000700f2352f00e3c62300000041009b
:1012c0008180490000acbe00890f5400f6ff3a004f
:1012d00090a98800a1a9880070a8800081a880003a
:1012e00070a4880081a4880011c0b3008048210048
:1012f00001487800d26026009301200090a9800068
:10130000a1a9800014000700f2352f00e3c62300d6
:10131000000241008182490094a98800a5a98800a3
:10132000e0482100100078007f0160004211dd00dc
:1013300020492100020140001200be0070a4880074
:1013400081a488000489be000100780000f0a1009b
:101350004f04be0000000600020ab900001bb900dd
:101360000200b80081004200810043000000060036
:020000040000fa
:101370006b7200007578000000700000726500005c
:10138000736500006e740000730000003078000088
:1013900030410000646500006d6f00000020000017
:1013a000202000002020000020200000202000003d
:1013b000202000002e2e00002e200000616e000074
:1013c0006420000074680000757300002074000041
:1013d00068650000206500006e640000206f00005a
:1013e000662000007468000069730000206c000033
:1013f00069740000746c00006520000064650000e2
:101400006d6f0000202e00002e2e000020670000cf
:10141000726500006574000073200000676f0000b3
:10142000206f000075740000207400006f20000021
:101430007073000079630000686f0000686f00003f
:101440006c690000637300002028000066750000ce
:10145000636b0000207900006561000068210000d6
:10146000292c000020700000696e000067750000e4
:10147000696e00006f2c00002064000061740000a1
:1014800061670000726100006d2c000020630000a5
:1014900068610000726c000069650000782c000033
:1014a00020730000796e000020730000686f000058
:1014b000702c0000206100006e64000020320000eb
:1014c00033620000202e00002e2e0000206f00004e
:1014d00068200000616e000064200000227200009d
:1014e0006d200000646b00007576000069650000e7
:1014f0006562000072740000207200006e2000001f
:101500006f7200006f610000746e00006d65000076
:101510006f690000792000006c6500002220000047
:1015200020200000202000002020000020200000bb
:10153000000000001a2f0000763600000a3200007a
:10154000142c0000142c0000a00f0000000000006c
:101550008a300000023500000a320000142c00001e
:10156000142c00000500000000000000902f000077
:10157000a43800000a320000142c0000142c0000d3
:101580008a02000000000000063000001633000050
:101590000a320000142c0000142c00008403000008
:1015a000000000008a300000023500000a3200000e
:1015b000142c0000142c0000640000000000000047
:020000040000fa
:1015c000121500002000000082000000080020002a
:1015d0000008000020000a00000500000a000000ca
:1015e0005c00000000f2010000142c00142c0c0020
:1015f000004c0000c800000002080000860c00003b
:10160000800000009c2a000064310000820000007d
:1016100000002000007e00002b0014008401000068
:1016200014050200001486000200140007030000e5
:101630001488030000140900040014008a04000048
:10164000140b050000148c00050014000d060000aa
:10165000148e060000140f0007001400900700000d
:10166000141108000014920008001400130900006f
:1016700014940900001415000a001400960a0000d2
:1016800014170b00001498000b001400190c000034
:10169000149a0c0000141b000d0014009c0d000097
:1016a000141d0e0000149e000e0014001f0f0000f9
:1016b00014a00f000014210010001400a21000005c
:1016c000142311000014a4001100150025120000bd
:1016d00014a612000014270013001400a813000021
:1016e000142914000014aa00140014002b15000083
:1016f00014ac150000142d0016001400ae160000e6
:10170000142f17000014b000170014003118000047
:1017100014b218000014330019001400b4190000aa
:1017200014351a000014b6001a001400371b00000c
:1017300014b81b00001439001c001500ba1c00006e
:10174000143b1d000014bc001d0014003d1e0000d1
:1017500014be1e0000143f001f001400c01f000034
:10176000144120000014c200200014004321000096
:1017700014c421000014450022001400c6220000f9
:10178000144723000014c80023001400492400005b
:1017900014ca240000144b0025001400cc250000be
:1017a000144d26000014ce00260014004f27000020
:1017b00014d027000014510028001400d228000083
:1017c000145329000014d40029001400552a0000e5
:1017d00014d62a00001457002b001400d82b000048
:1017e00014592c000014da002c0014005b2d0000aa
:1017f00014dc2d0000145d002e001400de2e00000d
:10180000145f2f000014e0002f001400613000006e
:1018100014e23000000000000000000000000000a2
:1018200000000000000000000000000000000000b8
:1018300000000000000000000000000000000000a8
:101840000000000000000000000000000000000098
:101850000000000000000000000000000000000088
:101860000000000000000000000000000000000078
:101870000000000000000000000000000000000068
:101880000000000000000000000000000000000058
:101890000000000000000000000000000000000048
:1018a0000000000000000000000000000000000038
:1018b0000000000000000000000000000000000028
:1018c0000000000000000000000000000000000018
:1018d0000000000000000000000000000000000008
:1018e00000000000000000000000000000000f00e9
:1018f00000000f0000000f0000000f0000000f00ac
:1019000000000f0000000f0000000f0000000f009b
:1019100000000f0000000f0000000f0000000f008b
:1019200000000f0000000f0000000f0000000e007c
:1019300000000600000000000000000000000e0093
:1019400000001f0000001f0000001f0000000e002c
:101950000000000000000000000000000000000087
:101960000000000000000000000000000000000077
:101970000000000000000000000000000000000067
:101980000000000000000000000000000000000057
:10199000000000000000000000e0f10000e0f100a5
:1019a00000e0f10000e0f10000e0f10000e0f100f3
:1019b00000e0f10000e0f100000000000000000085
:1019c0000000000000000000000000000000000017
:1019d0000000000000000000000000000000000007
:1019e00000000000000000000000000000000000f7
:1019f00000000000000000000000000000000000e7
:101a000000000000000000000000000000000000d6
:101a100000000000000000000000000000000000c6
:101a200000000000000000000000000000000000b6
:101a300000000000000000000000000000000000a6
:101a400000000000000000000000000000c0e000f6
:101a500000c0e00000c0e00000c0e00000c0e00006
:101a600000c0e00000fcff0007fcff0007fcff00d7
:101a700007e0700000e0700000e07000006070009f
:101a80000060700000feff0003feff0003feff0089
:101a9000036070000070380000703800007038007b
:101aa00000703800007038000000000000000000e6
:101ab0000000000000000000000000000000000026
:101ac0000000000000000000000000000000000016
:101ad0000000000000000000000000000000000006
:101ae00000000000000000000000000000000c00ea
:101af00000000e0000000e0000c03f0000f07f005c
:101b000000f87f0000784600001c0600001c06005c
:101b1000001c0700003c07000078070000f80700e1
:101b200000f0070000c01f0000007f000000fb0065
:101b30000000e3000180c3000180c3000180c300f6
:101b40000180e300018cf30000fcff0000fc3f007b
:101b500000f00f0000c0010000c0010000c0010043
:101b600000c00100000000000000000000000000b4
:101b70000000000000000000000000000000000065
:101b80000000000000000000000000000000000055
:101b900000000000000000000000000000f0000055
:101ba0000efc030007fc8300039e8700030ec700a2
:101bb000010ee700000e6700009e770000fc3b006e
:101bc00000fc1b0000f01c0000000e0000000700dd
:101bd000000007000080e30001c0f90007c0f90021
:101be00007e03c000f701c000e701c000e381c003b
:101bf0000e1c3c000f1cf800070ef8000707e00061
:101c000001000000000000000000000000000000d3
:101c100000000000000000000000000000000000c4
:101c200000000000000000000000000000000000b4
:101c300000000000000000000000000000000000a4
:101c4000000000000000000000c00f0000e01f00c6
:101c500000f03f0000787800003870000038700015
:101c600000387000003870000078380000f01e0066
:101c700000f00f0000e0070000e0030000f887001c
:101c8000033c8700031c8f00030e9e00030efc0024
:101c9000010ef800010ef000011ef000003cf800fb
:101ca00001fcff0003f89f0007e007000f000000a1
:101cb0000000000000000000000000000000000024
:101cc0000000000000000000000000000000000014
:101cd0000000000000000000000000000000000004
:101ce00000000000000000000000000000000000f4
:101cf0000000000000000f0000000f0000000f00b7
:101d000000000f0000000f0000000f0000000f0097
:101d100000000f00000000000000000000000000b4
:101d200000000000000000000000000000000000b3
:101d300000000000000000000000000000000000a3
:101d40000000000000000000000000000000000093
:101d50000000000000000000000000000000000083
:101d60000000000000000000000000000000000073
:101d70000000000000000000000000000000000063
:101d80000000000000000000000000000000000053
:101d90000000000000000000000000000000200023
:101da000000070000000380000001c0000001e0051
:101db00000000f0000000700008003000080030007
:101dc00000c0010000c0010000c0010000e00000f0
:101dd00000e0000000e0000000e0000000e0000083
:101de00000e0000000e0000000e0000000e0000073
:101df00000c0010000c0010000c00100008003001d
:101e0000008003000000070000000f0000001e001b
:101e100000001c00000038000000700000002000de
:101e200000000000000000000000000000000000b2
:101e300000000000000000000000000000000000a2
:101e40000000000000000000002000000070000002
:101e500000e0000000c0010000c003000080070097
:101e60000000070000000e0000000e0000001c0033
:101e700000001c0000001c000000380000003800ba
:101e80000000380000003800000038000000380072
:101e900000003800000038000000380000001c007e
:101ea00000001c0000001c0000000e0000000e00de
:101eb00000000700008007000080030000c0010050
:101ec00000e00000007000000020000000000000a2
:101ed0000000000000000000000000000000000002
:101ee00000000000000000000000000000000000f2
:101ef00000000000000000000000060000000600d6
:101f000000000600001086000078e60001f0f600f0
:101f100000c03f0000000e0000c01f0000f0f600ef
:101f20000078e600011086000000060000000600b0
:101f3000000006000000000000000000000000009b
:101f40000000000000000000000000000000000091
:101f50000000000000000000000000000000000081
:101f60000000000000000000000000000000000071
:101f70000000000000000000000000000000000061
:101f80000000000000000000000000000000000051
:101f90000000000000000000000000000000000041
:101fa0000000000000000000000000000000000031
:101fb0000000000000000000000000000000000021
:101fc00000000700000007000000070000000700f5
:101fd00000000700000007000000070000feff00ef
:101fe00003feff0003feff000300070000000700e0
:101ff00000000700000007000000070000000700c5
:1020000000000700000000000000000000000000c9
:1020100000000000000000000000000000000000c0
:1020200000000000000000000000000000000000b0
:1020300000000000000000000000000000000000a0
:102040000000000000000000000000000000000090
:102050000000000000000000000000000000000080
:102060000000000000000000000000000000000070
:102070000000000000000000000000000000000060
:102080000000000000000000000000000000000050
:102090000000000000000000000000000000000040
:1020a0000000070000800f0000801f0000001f00dc
:1020b00000001f0000001e0000000f0000800f0045
:1020c00000f0070000f0030000f000000000000036
:1020d0000000000000000000000000000000000000
:1020e00000000000000000000000000000000000f0
:1020f00000000000000000000000000000000000e0
:1021000000000000000000000000000000000000cf
:1021100000000000000000000000000000000000bf
:1021200000000000000000000000000000000000af
:102130000000000000e0ff0000e0ff0000e0ff0002
:10214000000000000000000000000000000000008f
:10215000000000000000000000000000000000007f
:10216000000000000000000000000000000000006f
:10217000000000000000000000000000000000005f
:10218000000000000000000000000000000000004f
:10219000000000000000000000000000000000003f
:1021a000000000000000000000000000000000002f
:1021b000000000000000000000000000000000001f
:1021c000000000000000000000000000000000000f
:1021d00000000000000000000000000000000000ff
:1021e00000000000000000000000000000000000ef
:1021f0000000000000000f0000801f0000801f0092
:1022000000801f0000801f0000000f000000000081
:1022100000000000000000000000000000000000be
:1022200000000000000000000000000000000000ae
:10223000000000000000000000000000000000009e
:10224000000000000000000000000000000000008e
:10225000000000000000c0000100e0000000e000fd
:1022600000006000000070000000700000003800f6
:102270000000380000001c0000001c0000001c00d2
:1022800000000e0000000e00000007000000070024
:1022900000000700008003000080030000c0010070
:1022a00000c0010000c0000000e0000000e00000ed
:1022b00000700000007000000038000000380000ce
:1022c00000380000001c00000000000000000000ba
:1022d00000000000000000000000000000000000fe
:1022e00000000000000000000000000000000000ee
:1022f00000000000000000000000000000000000de
:10230000000000000000000000003f0000c07f004f
:1023100000e0ff0001f0e0000178c0000338800019
:1023200003388000031ce000071cf000071c7c0041
:10233000071c3e00079c0f0007dc070007fc01009c
:1023400007fc0000073c800007388000033880004d
:102350000378c00003f0e00001e0ff0000c07f0050
:1023600000801f00000000000000000000000000ce
:10237000000000000000000000000000000000005d
:10238000000000000000000000000000000000004d
:10239000000000000000000000000000000000003d
:1023a000000000000000000000000000000000002d
:1023b0000000000000000f0000c00f0000f80f0038
:1023c00000fc0e0000380e0000080e0000000e0099
:1023d00000000e0000000e0000000e0000000e00c5
:1023e00000000e0000000e0000000e0000000e00b5
:1023f00000000e0000000e0000000e0000000e00a5
:1024000000000e0000f8ff0003f8ff0003f8ff00d3
:1024100003000000000000000000000000000000b9
:1024200000000000000000000000000000000000ac
:10243000000000000000000000000000000000009c
:10244000000000000000000000000000000000008c
:10245000000000000000000000000000000000007c
:1024600000801f0000e07f0000f0ff000078f00017
:102470000010e0000100c0000100c0000100c00029
:102480000100c0000100e0000000e000000070005a
:102490000000780000003c0000001e0000000f005b
:1024a0000080070000c0030000e0010000f0000011
:1024b00000f8ff0003f8ff0003f8ff00030000002e
:1024c000000000000000000000000000000000000c
:1024d00000000000000000000000000000000000fc
:1024e00000000000000000000000000000000000ec
:1024f00000000000000000000000000000000000dc
:1025000000000000000000000000000000e00f00dc
:1025100000f03f0000f07f000030f8000000e00015
:102520000000e0000000e0000000e000000070009b
:102530000000780000c01f0000c03f0000c07f0006
:102540000000f0000000e0000100c0000100c00039
:102550000100c0000100e0000100f00000f87f0071
:1025600000f83f0000f80700000000000000000035
:10257000000000000000000000000000000000005b
:10258000000000000000000000000000000000004b
:10259000000000000000000000000000000000003b
:1025a000000000000000000000000000000000002b
:1025b000000000000000000000007c0000007c0023
:1025c00000007e0000007f000000770000807300a4
:1025d0000080730000c0710000e0700000e0700037
:1025e000007070000038700000387000001c70002f
:1025f000000e700000feff0007feff0007feff0058
:102600000700700000007000000070000000700003
:10261000000070000000000000000000000000004a
:1026200000000000000000000000000000000000aa
:10263000000000000000000000000000000000009a
:10264000000000000000000000000000000000008a
:10265000000000000000000000000000000000007a
:102660000000000000f8ff0000f8ff0000f8ff0085
:10267000003800000038000000380000003800007a
:10268000003800000038000000f80f0000f83f009c
:1026900000f8ff000000f8000000e0000100c000aa
:1026a0000100c0000100c0000100c0000100e00006
:1026b0000000f80000f87f0000f81f0000f8070095
:1026c000000000000000000000000000000000000a
:1026d00000000000000000000000000000000000fa
:1026e00000000000000000000000000000000000ea
:1026f00000000000000000000000000000000000da
:1027000000000000000000000000000000000000c9
:102710000000fc000080ff0000c0ff0000e003009c
:1027200000f00000007800000038000000180000f1
:10273000001c0000009c3f0000fcff0000fcff00ac
:10274000017ce000011cc000031c8000031c800011
:10275000031c8000033880000338c00001f8e0004b
:1027600001f0ff0000e07f0000801f00000000007b
:102770000000000000000000000000000000000059
:102780000000000000000000000000000000000049
:102790000000000000000000000000000000000039
:1027a0000000000000000000000000000000000029
:1027b00000000000000000000000000000fcff001e
:1027c00003fcff0003fcff00030080000300c000c7
:1027d0000100c0000100e0000000e0000000700007
:1027e000000070000000380000003c0000001c00e9
:1027f00000001e0000000e0000000f000000070097
:10280000008007000080030000c0030000c001003a
:1028100000e0010000e000000000000000000000f7
:1028200000000000000000000000000000000000a8
:102830000000000000000000000000000000000098
:102840000000000000000000000000000000000088
:102850000000000000000000000000000000000078
:10286000000000000000000000c01f0000f07f001a
:1028700000f8ff000078f000011cc000011cc0003f
:10288000011cc000013ce0000178f00000f8790074
:1028900000e03f0000c01f0000e03f0000f0fc002f
:1028a0000078f000003ce000011cc000011cc000ea
:1028b000011cc000017cf00001f8ff0000f07f0067
:1028c00000c01f0000000000000000000000000029
:1028d00000000000000000000000000000000000f8
:1028e00000000000000000000000000000000000e8
:1028f00000000000000000000000000000000000d8
:1029000000000000000000000000000000000000c7
:102910000000000000801f0000e07f0000f0ff00ca
:102920000078f0000138c000011cc000011c8000cc
:10293000031c8000031c8000033c80000378e0003f
:1029400003f8ff0003f0ff0003c09f0003008000b6
:102950000300c0000100c0000100e0000100f00021
:1029600000007c0000f83f0000f81f0000f80300a2
:102970000000000000000000000000000000000057
:102980000000000000000000000000000000000047
:102990000000000000000000000000000000000037
:1029a0000000000000000000000000000000000027
:1029b0000000000000000000000000000000000017
:1029c0000000000000000000000000000000000007
:1029d000000000000000070000800f0000800f00d2
:1029e00000800f0000000700000000000000000051
:1029f00000000000000000000000000000000000d7
:102a000000000000000000000000070000800f0030
:102a100000800f0000800f00000007000000000091
:102a200000000000000000000000000000000000a6
:102a30000000000000000000000000000000000096
:102a40000000000000000000000000000000000086
:102a50000000000000000000000000000000000076
:102a60000000000000000000000000000000000066
:102a70000000000000000000000000000000000056
:102a80000000070000800f0000800f0000800f0092
:102a9000000007000000000000000000000000002f
:102aa0000000000000000000000000000000000026
:102ab000000000000000070000800f0000801f00e1
:102ac00000001f0000001f0000001e0000000f009b
:102ad00000800f0000f0070000f0030000f000008d
:102ae00000000000000000000000000000000000e6
:102af00000000000000000000000000000000000d6
:102b000000000000000000000000000000000000c5
:102b100000000000000000000000000000000000b5
:102b200000000000000060000000f00000007800dd
:102b300000003c0000001e0000800f0000c00300e9
:102b400000e0010000f000000078000000780000c4
:102b500000f0000000e0010000c0030000800f0052
:102b600000001e0000003c00000078000000f000a3
:102b700000006000000000000000000000000000f5
:102b80000000000000000000000000000000000045
:102b90000000000000000000000000000000000035
:102ba0000000000000000000000000000000000025
:102bb0000000000000000000000000000000000015
:102bc0000000000000000000000000000000000005
:102bd00000000000000000000000000000000000f5
:102be000000000000000000000fcff0001fcff00ee
:102bf00001fcff00010000000000000000000000d8
:102c00000000000000fcff0001fcff0001fcff00d1
:102c100001000000000000000000000000000000b3
:102c200000000000000000000000000000000000a4
:102c30000000000000000000000000000000000094
:102c40000000000000000000000000000000000084
:102c50000000000000000000000000000000000074
:102c60000000000000000000000000000000000064
:102c700000000000000000000000000000600000f4
:102c800000f0000000e0010000c003000080070029
:102c900000001f0000003c00000078000000f00071
:102ca0000000e0000100e0000100f00000007800fa
:102cb00000003c0000001f000080070000c003006f
:102cc00000e0010000f000000060000000000000d3
:102cd00000000000000000000000000000000000f4
:102ce00000000000000000000000000000000000e4
:102cf00000000000000000000000000000000000d4
:102d000000000000000000000000000000000000c3
:102d10000000000000e0010000e00f0000e01f00e4
:102d200000003e00000078000000f0000000e0001d
:102d30000000e0000000e0000000e0000000f00003
:102d400000807f0000803f0000800f0000800300b3
:102d500000800300008003000080030000000000ea
:102d6000000000000080030000c0070000c0070052
:102d700000c0070000800300000000000000000009
:102d80000000000000000000000000000000000043
:102d90000000000000000000000000000000000033
:102da0000000000000000000000000000000000023
:102db0000000000000000000000000000000000013
:102dc00000003f000080ff0000e0e1000170800093
:102dd0000130800003180000031c0000030c0000f9
:102de000060c0000060e7f0006867f0006c67f00e8
:102df00006e6710006e3700006e33000067330005b
:102e000006733800067338000673380007733800fd
:102e100003733c0003f3ff0003e3f70001c3e30087
:102e2000000700000006000000060000000e000081
:102e3000001c0000003c200000f83f0000e00f00f4
:102e40000000000000000000000000000000000082
:102e50000000000000000000000000000000000072
:102e60000000000000000000000000000000000062
:102e70000000000000001f0000001f0000003b00d9
:102e800000803b0000803b000080710000c07100aa
:102e900000c0710000c0f00000e0e00000e0e000d1
:102ea0000070e0000170c0000170c0000178c00037
:102eb00003f8ff0003f8ff0003fcff00071c0000fd
:102ec000071c0000071e00000f0e00000e0e000081
:102ed0000e000000000000000000000000000000e4
:102ee00000000000000000000000000000000000e2
:102ef00000000000000000000000000000000000d2
:102f000000000000000000000000000000000000c1
:102f100000000000000000000000000000000000b1
:102f200000f81f0000f87f0000f8ff000038f000f4
:102f30000138c0000138c0000138c0000138e0008d
:102f40000138f00000f87f0000f87f0000f8ff0073
:102f50000038f0000138c0000338800003388000da
:102f600003388000033880000338c0000138e000d7
:102f700001f8ff0000f87f0000f81f0000000000cb
:102f80000000000000000000000000000000000041
:102f90000000000000000000000000000000000031
:102fa0000000000000000000000000000000000021
:102fb0000000000000000000000000000000000011
:102fc0000000000000000000000000000000fe0003
:102fd0000080ff0003e0ff0003e0010003f00000b9
:102fe000007800000038000000380000001c0000dd
:102ff000001c0000001c0000001c0000001c000061
:10300000001c0000001c0000003c00000038000014
:103010000078000000f8000000f0010003e0ff006d
:1030200003c0ff000300fe000000000000000000dd
:103030000000000000000000000000000000000090
:103040000000000000000000000000000000000080
:103050000000000000000000000000000000000070
:103060000000000000000000000000000000000060
:10307000000000000000000000fc0f0000fc3f000a
:1030800000fc7f00001cf800001ce000011cc000d8
:10309000011cc000011c8000031c8000031c800078
:1030a000031c8000031c8000031c8000031c8000a4
:1030b000031c8000031cc000031cc000011ce000b6
:1030c000011cf000001cf80000fc7f0000fc1f0049
:1030d00000fc0700000000000000000000000000ed
:1030e00000000000000000000000000000000000e0
:1030f00000000000000000000000000000000000d0
:1031000000000000000000000000000000000000bf
:1031100000000000000000000000000000000000af
:103120000000000000f0ff0001f0ff0001f0ff00d0
:1031300001700000007000000070000000700000ce
:10314000007000000070000000f0ff0001f0ff00c0
:1031500001f0ff000170000000700000007000002e
:10316000007000000070000000700000007000009f
:103170000070000000f0ff0001f0ff0001f0ff0010
:10318000010000000000000000000000000000003e
:10319000000000000000000000000000000000002f
:1031a000000000000000000000000000000000001f
:1031b000000000000000000000000000000000000f
:1031c00000000000000000000000000000000000ff
:1031d00000f0ff0001f0ff0001f0ff0001700000af
:1031e000007000000070000000700000007000001f
:1031f000007000000070000000f0ff0000f0ff0011
:1032000000f0ff000070000000700000007000007f
:1032100000700000007000000070000000700000ee
:10322000007000000070000000700000000000004e
:10323000000000000000000000000000000000008e
:10324000000000000000000000000000000000007e
:10325000000000000000000000000000000000006e
:10326000000000000000000000000000000000005e
:103270000000000000000000000000000000fe0050
:1032800000c0ff0003e0ff0003f00100037800002e
:10329000003c0000001c0000001c0000000e0000ac
:1032a000000e0000000efc00030efc00030efc00ec
:1032b000030e8000030e8000031e8000031c8000ac
:1032c000033c80000378800003f8810003f0ff00d6
:1032d00003c0ff0003007f000000000000000000aa
:1032e00000000000000000000000000000000000de
:1032f00000000000000000000000000000000000ce
:1033000000000000000000000000000000000000bd
:1033100000000000000000000000000000000000ad
:103320000000000000000000001c8000031c800062
:10333000031c8000031c8000031c8000031c800011
:10334000031c8000031c8000031c800003fcff00a2
:1033500003fcff0003fcff00031c8000031c800033
:10336000031c8000031c8000031c8000031c8000e1
:10337000031c8000031c8000031c8000031c8000d1
:10338000031c80000300000000000000000000009b
:10339000000000000000000000000000000000002d
:1033a000000000000000000000000000000000001d
:1033b000000000000000000000000000000000000d
:1033c00000000000000000000000000000000000fd
:1033d0000000000000f8ff0000f8ff0000f8ff0008
:1033e00000000700000007000000070000000700c1
:1033f00000000700000007000000070000000700b1
:1034000000000700000007000000070000000700a0
:103410000000070000000700000007000000070090
:103420000000070000f8ff0000f8ff0000f8ff00b0
:10343000000000000000000000000000000000008c
:10344000000000000000000000000000000000007c
:10345000000000000000000000000000000000006c
:10346000000000000000000000000000000000005c
:10347000000000000000000000000000000000004c
:1034800000f87f0000f87f0000f87f000000700067
:10349000000070000000700000007000000070006c
:1034a000000070000000700000007000000070005c
:1034b000000070000000700000007000000070004c
:1034c00000007000000070000008780000383c0028
:1034d00000f83f0000f01f0000e0070000000000bf
:1034e00000000000000000000000000000000000dc
:1034f00000000000000000000000000000000000cc
:1035000000000000000000000000000000000000bb
:1035100000000000000000000000000000000000ab
:103520000000000000000000000000000038c000a3
:103530000138e0000138f000003878000038380029
:1035400000381c0000381e0000380e00003807004c
:1035500000b8030000f8030000f8010000b8030001
:1035600000b8070000380f0000380e0000381e00b9
:1035700000383c0000387800003870000038f00057
:103580000038e0000138c000030000000000000027
:10359000000000000000000000000000000000002b
:1035a000000000000000000000000000000000001b
:1035b000000000000000000000000000000000000b
:1035c00000000000000000000000000000000000fb
:1035d000000000000000000000700000007000000b
:1035e000007000000070000000700000007000001b
:1035f000007000000070000000700000007000000b
:1036000000700000007000000070000000700000fa
:1036100000700000007000000070000000700000ea
:10362000007000000070000000f0ff0001f0ff00db
:1036300001f0ff0001000000000000000000000099
:10364000000000000000000000000000000000007a
:10365000000000000000000000000000000000006a
:10366000000000000000000000000000000000005a
:10367000000000000000000000000000000000004a
:1036800000000000003cc000033cc000037ce000e0
:10369000036c6000036c600003ec700003cc30002e
:1036a00003cc390003cc1900038c1900078c1f00d0
:1036b000070c0f00070c0f00070c0f00070e060089
:1036c000070e0000070e0000070e0000070e0000a6
:1036d000070e0000070e0000070e0000070e000096
:1036e00007000000000000000000000000000000d3
:1036f00000000000000000000000000000000000ca
:1037000000000000000000000000000000000000b9
:1037100000000000000000000000000000000000a9
:103720000000000000000000000000000000000099
:10373000003c8000037c8000037c800003fc800050
:1037400003fc800003dc810003dc810003dc8300d8
:10375000039c8300039c8700031c8700031c8f00cd
:10376000031c8e00031c9e00031c9c00031c9c0079
:10377000031cb800031cb800031cf000031cf0007d
:10378000031ce000031ce000031cc0000300000059
:103790000000000000000000000000000000000029
:1037a0000000000000000000000000000000000019
:1037b0000000000000000000000000000000000009
:1037c00000000000000000000000000000000000f9
:1037d00000000000000000000000000000801f004a
:1037e00000e07f0000f0ff0000f8f0000138c000aa
:1037f000031c8000031c8000031e0000070e000055
:10380000070e0000070e0000070e0000070e000064
:10381000070e0000070e0000070e8000071c800046
:10382000031c8000033cc00001f8f00001f0ff0021
:1038300000e07f0000801f0000000000000000008a
:103840000000000000000000000000000000000078
:103850000000000000000000000000000000000068
:103860000000000000000000000000000000000058
:103870000000000000000000000000000000000048
:10388000000000000000000000f81f0000f87f00aa
:1038900000f8ff000038f0000138c0000338800055
:1038a000033880000338800003388000033880002c
:1038b0000338c0000138f00001f8ff0000f87f0075
:1038c00000f80f0000380000003800000038000049
:1038d0000038000000380000003800000038000008
:1038e00000380000000000000000000000000000a0
:1038f00000000000000000000000000000000000c8
:1039000000000000000000000000000000000000b7
:1039100000000000000000000000000000000000a7
:103920000000000000000000000000000000000097
:103930000000000000801f0000e07f0000f0ff009a
:1039400000f8f0000138c000031c8000031c800058
:10395000031e0000070e0000070e0000070e000007
:10396000070e0000070e0000070e0000070e000003
:10397000070e8000071c8000031c8000033cc00071
:1039800001f8f00001f0ff0000e07f0000c01f0020
:103990000000070000000f0000001e000400fe00f1
:1039a0000f00fc000700f000030000000000000012
:1039b0000000000000000000000000000000000007
:1039c00000000000000000000000000000000000f7
:1039d00000000000000000000000000000000000e7
:1039e00000f80f0000f83f0000f87f000038f800f2
:1039f0000038f0000038e0000038e0000038e00057
:103a00000038f0000038780000f83f0000f81f0090
:103a100000f80f0000381e0000383c000038380065
:103a200000387800003870000038f0000038e000fe
:103a30000038e0000138c0000138c0000300000079
:103a40000000000000000000000000000000000076
:103a50000000000000000000000000000000000066
:103a60000000000000000000000000000000000056
:103a70000000000000000000000000000000000046
:103a800000000000000000000000000000803f0077
:103a900000e0ff0000f8ff000078c000001c0000fc
:103aa000001c0000001c0000003c0000007800002a
:103ab00000f8010000f0070000c01f0000007e00b9
:103ac0000000f8000000e0000100c0000100c0009c
:103ad0000100c0000100e000010cf00000fcff004c
:103ae00000fc3f0000f00f0000000000000000009c
:103af00000000000000000000000000000000000c6
:103b000000000000000000000000000000000000b5
:103b100000000000000000000000000000000000a5
:103b20000000000000000000000000000000000095
:103b3000000000000000000000feff0003feff0088
:103b400003feff000300070000000700000007005d
:103b50000000070000000700000007000000070049
:103b60000000070000000700000007000000070039
:103b70000000070000000700000007000000070029
:103b80000000070000000700000007000000070019
:103b9000000007000000000000000000000000001e
:103ba0000000000000000000000000000000000015
:103bb0000000000000000000000000000000000005
:103bc00000000000000000000000000000000000f5
:103bd00000000000000000000000000000000000e5
:103be00000000000001c8000031c8000031c8000fb
:103bf000031c8000031c8000031c8000031c800049
:103c0000031c8000031c8000031c8000031c800038
:103c1000031c8000031c8000031c8000031c800028
:103c2000031c8000031c8000031cc000033cc00078
:103c30000178e00001f0ff0000e07f0000c01f00fd
:103c40000000000000000000000000000000000074
:103c50000000000000000000000000000000000064
:103c60000000000000000000000000000000000054
:103c70000000000000000000000000000000000044
:103c80000000000000000000000000000000000034
:103c9000000e00000e1e00000e1e00000f1c000093
:103ca000071c0000073c80000738800003388000b4
:103cb0000378c0000370c0000170c00001f0e00094
:103cc00000e0e00000e0e00000e0710000c07100f2
:103cd00000c0710000c03b0000803b0000803b0042
:103ce00000801f0000001f0000001f0000000000f7
:103cf00000000000000000000000000000000000c4
:103d000000000000000000000000000000000000b3
:103d100000000000000000000000000000000000a3
:103d20000000000000000000000000000000000093
:103d3000000000000000000000000000000e000075
:103d4000070e0000070e0000070e0000070e00001f
:103d5000070e0000070c0000031c0000031c860077
:103d6000031c8600031c8f00031c8f00031c8f00a4
:103d7000031c9f00039c9900039c9900039cb900bd
:103d800003d8b90001d8b00001f8f00001f8f00044
:103d90000178e0000178e000010000000000000070
:103da0000000000000000000000000000000000013
:103db0000000000000000000000000000000000003
:103dc00000000000000000000000000000000000f3
:103dd00000000000000000000000000000000000e3
:103de0000000000000000000001e8000073cc00032
:103df0000338c0000178e00001f0f00000e070003e
:103e000000e0790000c03f0000c01f0000801f00dc
:103e100000000f0000000f0000801f0000c03f00e6
:103e200000c03d0000e0790000f0f0000070f000fc
:103e30000078e000013cc000033cc000031e80008d
:103e4000070f00000f00000000000000000000004d
:103e50000000000000000000000000000000000062
:103e60000000000000000000000000000000000052
:103e70000000000000000000000000000000000042
:103e80000000000000000000000000000000000032
:103e900000000000000f8000071ec000031ec000cd
:103ea000033ce000013ce0000178e0000078f00015
:103eb00000f0700000e0380000e0390000c01d0094
:103ec00000c01d0000800f0000800f0000000700f0
:103ed00000000700000007000000070000000700c6
:103ee00000000700000007000000070000000700b6
:103ef00000000000000000000000000000000000c2
:103f000000000000000000000000000000000000b1
:103f100000000000000000000000000000000000a1
:103f20000000000000000000000000000000000091
:103f30000000000000000000000000000000000081
:103f400000fcff0003fcff0003fcff000300c000b7
:103f50000100e0000000f0000000700000003800e8
:103f600000003c0000001c0000000e0000000f00dc
:103f7000000007000080030000c0030000c0010033
:103f800000e0000000f000000070000000380000b9
:103f900000fcff0003fcff0003fcff000300000027
:103fa0000000000000000000000000000000000011
:103fb0000000000000000000000000000000000001
:103fc00000000000000000000000000000000000f1
:103fd00000000000000000000000000000000000e1
:103fe0000000000000c07f0000c07f0000c07f0014
:103ff00000c0010000c0010000c0010000c00100bd
:1040000000c0010000c0010000c0010000c00100ac
:1040100000c0010000c0010000c0010000c001009c
:1040200000c0010000c0010000c0010000c001008c
:1040300000c0010000c0010000c0010000c001007c
:1040400000c0010000c0010000c0010000c001006c
:1040500000c0010000c0010000c07f0000c07f0060
:1040600000c07f0000000000000000000000000011
:104070000000000000000000000000000000000040
:104080000000000000000000000000000000000030
:104090000038000000700000007000000070000098
:1040a00000e0000000e0000000c0010000c00100ce
:1040b0000080010000800300008003000000070072
:1040c0000000070000000e0000000e0000000e00bf
:1040d00000001c0000001c00000038000000380038
:1040e0000000380000007000000070000000e000d8
:1040f0000000e0000000c0000000c0000100c0009f
:10410000010080000300000000000000000000002b
:10411000000000000000000000000000000000009f
:10412000000000000000000000000000000000008f
:1041300000000000000000000000000000e03f0060
:1041400000e03f0000e03f000000380000003800c1
:10415000000038000000380000003800000038007f
:10416000000038000000380000003800000038006f
:10417000000038000000380000003800000038005f
:10418000000038000000380000003800000038004f
:10419000000038000000380000003800000038003f
:1041a000000038000000380000003800000038002f
:1041b00000e03f0000e03f0000e03f0000000000a2
:1041c00000000000000000000000000000000000ef
:1041d00000000000000000000000000000000000df
:1041e00000000000000000000000000000000000cf
:1041f0000000070000800f0000800d0000c01d00bf
:1042000000c0380000e038000070700000707000de
:104210000038e000001cc000011cc00001000000cc
:10422000000000000000000000000000000000008e
:10423000000000000000000000000000000000007e
:10424000000000000000000000000000000000006e
:10425000000000000000000000000000000000005e
:10426000000000000000000000000000000000004e
:10427000000000000000000000000000000000003e
:10428000000000000000000000000000000000002e
:10429000000000000000000000000000000000001e
:1042a000000000000000000000000000000000000e
:1042b00000000000000000000000000000000000fe
:1042c00000000000000000000000000000000000ee
:1042d00000000000000000000000000000000000de
:1042e00000000000000000000000000000000000ce
:1042f00000000000000000000000000000000000be
:10430000000000000000000000ffff000fffff00a2
:104310000fffff000f000000000000000000000081
:10432000000000000000000000000000000000008d
:10433000000000000000000000000000000000007d
:1043400000f0010000e003000080070000000f0003
:10435000000000000000000000000000000000005d
:10436000000000000000000000000000000000004d
:10437000000000000000000000000000000000003d
:10438000000000000000000000000000000000002d
:10439000000000000000000000000000000000001d
:1043a000000000000000000000000000000000000d
:1043b00000000000000000000000000000000000fd
:1043c00000000000000000000000000000000000ed
:1043d00000000000000000000000000000000000dd
:1043e00000000000000000000000000000000000cd
:1043f00000000000000000000000000000000000bd
:10440000000000000000000000e00f0000f83f0086
:1044100000f87f000018f0000000e0000000e0005d
:104420000000e00000c0ff0000f0ff0000f8ff0007
:10443000003ce000001ce000001ce000001cf0005c
:10444000003cfc0000f8ff0000f8ef0000e0e30093
:10445000000000000000000000000000000000005c
:10446000000000000000000000000000000000004c
:10447000000000000000000000000000000000003c
:10448000000000000000000000000000000000002c
:1044900000000000000000000038000000380000ac
:1044a000003800000038000000380000003800002c
:1044b0000038000000383e0000b8ff0000f8ff00a0
:1044c00001f8e10001f8c0000178800003388000a5
:1044d00003388000033880000338800003388000f0
:1044e000033880000338c0000138c0000178f000b4
:1044f00000f8ff0000f87f0000e01f00000000004f
:1045000000000000000000000000000000000000ab
:10451000000000000000000000000000000000009b
:10452000000000000000000000000000000000008b
:10453000000000000000000000000000000000007b
:10454000000000000000000000000000000000006b
:10455000000000000000000000000000000000005b
:104560000000fe000080ff0001c0ff0001e003002a
:1045700001f000000070000000380000003800006a
:10458000003800000038000000380000003800004b
:104590000078000000f0000000f0010001e0ff00e2
:1045a00001c0ff000100ff0000000000000000004b
:1045b00000000000000000000000000000000000fb
:1045c00000000000000000000000000000000000eb
:1045d00000000000000000000000000000000000db
:1045e00000000000000000000000000000000000cb
:1045f0000000c0000100c0000100c0000100c000b8
:104600000100c0000100c0000100c0000180ff00e7
:1046100001e0ff0001f0ff0001f0c0000138c00020
:104620000138c000011cc000011cc000011cc000fa
:10463000011cc000011cc000011cc000011ce000e6
:104640000138f0000178fc0001f8df0001f0cf0034
:1046500001c0c700010000000000000000000000d1
:10466000000000000000000000000000000000004a
:10467000000000000000000000000000000000003a
:10468000000000000000000000000000000000002a
:10469000000000000000000000000000000000001a
:1046a000000000000000000000000000000000000a
:1046b000000000000000000000801f0000e03f003c
:1046c00000f07f000078f0000038e0000018c00023
:1046d000011cc00001fcff0001fcff0001fcff0009
:1046e000011c0000001c0000003c0000003800001d
:1046f00000f8c00000f0ff0000e0ff0000803f0075
:1047000000000000000000000000000000000000a9
:104710000000000000000000000000000000000099
:104720000000000000000000000000000000000089
:104730000000000000000000000000000000000079
:1047400000000000000000000000f8000300fe0070
:104750000700ff0007000f0006800700008003002d
:1047600000800300008003000080030000feff00c3
:1047700003feff0003feff00038003000080030030
:10478000008003000080030000800300008003001d
:10479000008003000080030000800300008003000d
:1047a0000080030000800300008003000000000080
:1047b00000000000000000000000000000000000f9
:1047c00000000000000000000000000000000000e9
:1047d00000000000000000000000000000000000d9
:1047e00000000000000000000000000000000000c9
:1047f00000000000000000000000000000000000b9
:1048000000000000000000000000000000000000a8
:104810000080ff0007e0ff0007f0ff0007f0f00056
:104820000078c0000138c0000138c0000138e00045
:1048300001f0f00000f0ff0000f07f0000b01f006a
:1048400000380000003800000078000000f87f0009
:1048500000f0ff0001f0ff000338c000031c8000df
:10486000031c8000033ce00003fcff0001f8ff0094
:1048700000e03f0000000000000000000000000019
:104880000000000000000000000000000000000028
:104890000000000000000000000000000000000018
:1048a0000038000000380000003800000038000028
:1048b00000380000003800000038000000383e00da
:1048c00000b87f0000f8ff0000f8e10001f8c00028
:1048d0000178c0000138c0000138c0000138c000b4
:1048e0000138c0000138c0000138c0000138c000e4
:1048f0000138c0000138c0000138c0000138c000d4
:104900000138c000010000000000000000000000ad
:104910000000000000000000000000000000000097
:104920000000000000000000000000000000000087
:104930000000000000000000000000000000000077
:10494000000000000000000000000e0000001f003a
:1049500000001f0000001f0000000e00000000000b
:10496000000000000000000000f00f0000f00f0049
:1049700000f00f0000000e0000000e0000000e000e
:1049800000000e0000000e0000000e0000000e00ef
:1049900000000e0000000e0000000e0000000e00df
:1049a00000000e0000f8ff0001f8ff0001f8ff0012
:1049b00001000000000000000000000000000000f6
:1049c00000000000000000000000000000000000e7
:1049d00000000000000000000000000000000000d7
:1049e00000000000000000000000000000000000c7
:1049f00000000000000070000000f8000000f80057
:104a00000000f8000000700000000000000000003e
:104a10000000000000f87f0000f87f0000f87f0031
:104a200000007000000070000000700000007000c6
:104a300000007000000070000000700000007000b6
:104a400000007000000070000000700000007000a6
:104a50000000700000007000000070000000700096
:104a60000000700000003800000c3c0000fc1f003b
:104a700000fc0f0000f80300000000000000000030
:104a80000000000000000000000000000000000026
:104a90000000000000000000000000000000000016
:104aa000000000000038000000380000003800005e
:104ab0000038000000380000003800000038000016
:104ac0000038c0000338e0000138f00000387800fa
:104ad00000383c0000381e0000380f0000b8070006
:104ae00000f8030000b8070000380f0000381e006f
:104af00000381e0000383c00003878000038f00014
:104b00000038e0000138c000030000000000000091
:104b10000000000000000000000000000000000095
:104b20000000000000000000000000000000000085
:104b30000000000000000000000000000000000075
:104b40000000000000000000000000000000000065
:104b500000f00f0000f00f0000f00f0000000e004a
:104b600000000e0000000e0000000e0000000e000d
:104b700000000e0000000e0000000e0000000e00fd
:104b800000000e0000000e0000000e0000000e00ed
:104b900000000e0000000e0000000e0000000e00dd
:104ba00000000e0000000e0000f8ff0001f8ff00fa
:104bb00001f8ff00010000000000000000000000fc
:104bc00000000000000000000000000000000000e5
:104bd00000000000000000000000000000000000d5
:104be00000000000000000000000000000000000c5
:104bf00000000000000000000000000000000000b5
:104c000000000000000000000000000000000000a4
:104c10000000000000000000009cc30001dce70071
:104c200003fcf700077c3e00073c1e00073c1e000b
:104c3000071c0e00071c0e00071c0e00071c0e00b0
:104c4000071c0e00071c0e00071c0e00071c0e00a0
:104c5000071c0e00071c0e00071c0e00071c0e0090
:104c6000070000000000000000000000000000003d
:104c70000000000000000000000000000000000034
:104c80000000000000000000000000000000000024
:104c90000000000000000000000000000000000014
:104ca0000000000000000000000000000000000004
:104cb00000000000000000000000000000000000f4
:104cc0000000000000383e0000b8ff0000f8ff00c0
:104cd00000f8e10001f8c0000178c0000138c00010
:104ce0000138c0000138c0000138c0000138c000e0
:104cf0000138c0000138c0000138c0000138c000d0
:104d00000138c0000138c0000138c00001000000b7
:104d10000000000000000000000000000000000093
:104d20000000000000000000000000000000000083
:104d30000000000000000000000000000000000073
:104d40000000000000000000000000000000000063
:104d50000000000000000000000000000000000053
:104d60000000000000000000000000000000000043
:104d700000801f0000e07f0000f0ff0000f8f0005e
:104d80000138c0000138c000031c8000031c8000f3
:104d9000031c8000031c8000031c8000031c800097
:104da000033cc0000138c00001f8f00001f0ff0032
:104db00000e07f0000801f000000000000000000f5
:104dc00000000000000000000000000000000000e3
:104dd00000000000000000000000000000000000d3
:104de00000000000000000000000000000000000c3
:104df00000000000000000000000000000000000b3
:104e000000000000000000000000000000000000a2
:104e100000000000000000000000000000383e001c
:104e200000b8ff0000f8ff0001f8e10001f8c00041
:104e30000178800003388000033880000338800048
:104e40000338800003388000033880000338c00036
:104e50000138c0000178f00000f8ff0000f87f0082
:104e600000f81f0000380000003800000038000083
:104e70000038000000380000003800000038000052
:104e80000000000000000000000000000000000022
:104e90000000000000000000000000000000000012
:104ea0000000000000000000000000000000000002
:104eb00000000000000000000000000000000000f2
:104ec00000000000000000000080bf0001e0ff00c3
:104ed00001f0ff0001f0e0000138c0000138c0001f
:104ee000011cc000011cc000011cc000011cc0004e
:104ef000011cc000011cc000011ce0000138f000d2
:104f00000178fc0001f8ff0001f0cf0001c0c700ec
:104f10000100c0000100c0000100c0000100c0008d
:104f20000100c0000100c0000100c000010000003d
:104f30000000000000000000000000000000000071
:104f40000000000000000000000000000000000061
:104f50000000000000000000000000000000000051
:104f60000000000000000000000000000000000041
:104f70000000000000707c000070fe000170ff0067
:104f800001f0c30003f0810003f080000370800093
:104f9000037000000070000000700000007000004e
:104fa0000070000000700000007000000070000041
:104fb00000700000007000000070000000000000a1
:104fc00000000000000000000000000000000000e1
:104fd00000000000000000000000000000000000d1
:104fe00000000000000000000000000000000000c1
:104ff00000000000000000000000000000000000b1
:1050000000000000000000000000000000000000a0
:105010000000000000000000000000000000000090
:1050200000803f0000e07f0000f07f00007860001b
:1050300000380000003800000078000000f0030095
:1050400000e00f0000803f0000007c000000f00046
:105050000000e0000000e0000018f00000f87f0011
:1050600000f83f0000e00f0000000000000000001a
:105070000000000000000000000000000000000030
:105080000000000000000000000000000000000020
:105090000000000000000000000000000000000010
:1050a0000000000000000000000000000000000000
:1050b000000000000080010000c0010000c00100ed
:1050c00000c0010000c0010000c0010000feff00a0
:1050d00001feff0001feff0001c0010000c0010051
:1050e00000c0010000c0010000c0010000c00100bc
:1050f00000c0010000c0010000c0010000c00100ac
:1051000000c0010000c007000180ff000100ff0097
:105110000100fe0000000000000000000000000090
:10512000000000000000000000000000000000007f
:10513000000000000000000000000000000000006f
:10514000000000000000000000000000000000005f
:10515000000000000000000000000000000000004f
:10516000000000000000000000000000000000003f
:1051700000000000000000000038c0000138c0003e
:105180000138c0000138c0000138c0000138c0003b
:105190000138c0000138c0000138c0000138c0002b
:1051a0000138c0000138c0000138e0000138f000cb
:1051b0000178f80001f0ff0001f0df0001c0c70036
:1051c00001000000000000000000000000000000de
:1051d00000000000000000000000000000000000cf
:1051e00000000000000000000000000000000000bf
:1051f00000000000000000000000000000000000af
:10520000000000000000000000000000000000009e
:10521000000000000000000000000000000000008e
:1052200000000000001c0000073c0000073c80005c
:10523000033880000378c0000370c0000170c00014
:1052400001f0e00000e0e00000e0e00000c07100dc
:1052500000c0710000c0330000803b0000803b00b4
:1052600000001b0000001f0000000f0000000000f5
:10527000000000000000000000000000000000002e
:10528000000000000000000000000000000000001e
:10529000000000000000000000000000000000000e
:1052a00000000000000000000000000000000000fe
:1052b00000000000000000000000000000000000ee
:1052c00000000000000000000000000000000000de
:1052d000000e8000030e8000030e8000030e80008d
:1052e000030e8700030e8700030e8f00030c8f0050
:1052f000039c8d00039c9d00019c9d00019c9900d6
:1053000001dcb80001d8b80001d8b00001f8f00005
:105310000178f0000178e0000100000000000000ca
:10532000000000000000000000000000000000007d
:10533000000000000000000000000000000000006d
:10534000000000000000000000000000000000005d
:10535000000000000000000000000000000000004d
:10536000000000000000000000000000000000003d
:10537000000000000000000000000000003cc00031
:105380000378e0000170f00000e0700000e07900b8
:1053900000c03d0000801f0000801f0000000f00c3
